{
  "transactions": [
    {
      "hash": "0xf22f257eaba1462d28a6ebe4c48561762de88e8cf94982dfa6ac5490ea792e6a",
      "transactionType": "CALL",
      "contractName": null,
      "contractAddress": "0x5d55e23e6d9ced6c2b9abbdfe5cebad1c4567333",
      "function": "setBetToken(address)",
      "arguments": [
        "0x0cb3246Ec8451b708612f9e3e44B8816b82FCcD5"
      ],
      "transaction": {
        "from": "0x4319f90913bf7dc168887d45f3bfdd9a2c5c9291",
        "to": "0x5d55e23e6d9ced6c2b9abbdfe5cebad1c4567333",
        "gas": "0xa392",
        "value": "0x0",
        "input": "0x843ddc0b0000000000000000000000000cb3246ec8451b708612f9e3e44b8816b82fccd5",
        "nonce": "0x1d",
        "chainId": "0x61"
      },
      "additionalContracts": [],
      "isFixedGasLimit": false
    }
  ],
  "receipts": [
    {
      "status": "0x1",
      "cumulativeGasUsed": "0x23df8",
      "logs": [
        {
          "address": "0x5d55e23e6d9ced6c2b9abbdfe5cebad1c4567333",
          "topics": [
            "0x4ed124de04f3487cf6e7bbaa9f759dac18ee70634d44ebd9044c3ac6d8860c91"
          ],
          "data": "0x0000000000000000000000000cb3246ec8451b708612f9e3e44b8816b82fccd5",
          "blockHash": "0x577933722a71fcdb770fc599dd1fb13dc0713a4a2e15af54df48a6744b733da2",
          "blockNumber": "0x595c78d",
          "blockTimestamp": "0x69a7c22a",
          "transactionHash": "0xf22f257eaba1462d28a6ebe4c48561762de88e8cf94982dfa6ac5490ea792e6a",
          "transactionIndex": "0x1",
          "logIndex": "0x5",
          "removed": false
        }
      ],
      "logsBloom": "0x00004000000000000000000000000000000000000000000000000000000000000000000000080000000000000000000000000000000000000000000000000000000000000000000000000000000000000000000000000000000000000000020000000000000000000000000000000000000000000000000000000000000000000000000000000000000000000000000000000200000000000000000000000000000000000000000000000000000000000000000000000000000000000000000000000000000000000000000000000000000000000000000000000000000000000080000100000000000000000000000000000000000000000000000000000000",
      "type": "0x0",
      "transactionHash": "0xf22f257eaba1462d28a6ebe4c48561762de88e8cf94982dfa6ac5490ea792e6a",
      "transactionIndex": "0x1",
      "blockHash": "0x577933722a71fcdb770fc599dd1fb13dc0713a4a2e15af54df48a6744b733da2",
      "blockNumber": "0x595c78d",
      "gasUsed": "0x766d",
      "effectiveGasPrice": "0x5f5e100",
      "from": "0x4319f90913bf7dc168887d45f3bfdd9a2c5c9291",
      "to": "0x5d55e23e6d9ced6c2b9abbdfe5cebad1c4567333",
      "contractAddress": null
    }
  ],
  "libraries": [],
  "pending": [],
  "returns": {},
  "timestamp": 1772601901,
  "chain": 97,
  "commit": "5ece6ce"
}