{
  "transactions": [
    {
      "hash": "0x42560068f07f6d62633566c519e4937ea21b367128e71a957fd0e64cb3fc4879",
      "transactionType": "CALL",
      "contractName": null,
      "contractAddress": "0xf316b4698b1d147ac0a6b0e63a7e012070b89ce0",
      "function": "setBetAmounts(uint256[])",
      "arguments": [
        "[100000000000000000, 1000000000000000000, 2000000000000000000, 5000000000000000000, 10000000000000000000]"
      ],
      "transaction": {
        "from": "0x4319f90913bf7dc168887d45f3bfdd9a2c5c9291",
        "to": "0xf316b4698b1d147ac0a6b0e63a7e012070b89ce0",
        "gas": "0xd662",
        "value": "0x0",
        "input": "0x4157b8f100000000000000000000000000000000000000000000000000000000000000200000000000000000000000000000000000000000000000000000000000000005000000000000000000000000000000000000000000000000016345785d8a00000000000000000000000000000000000000000000000000000de0b6b3a76400000000000000000000000000000000000000000000000000001bc16d674ec800000000000000000000000000000000000000000000000000004563918244f400000000000000000000000000000000000000000000000000008ac7230489e80000",
        "nonce": "0x9",
        "chainId": "0x61"
      },
      "additionalContracts": [],
      "isFixedGasLimit": false
    }
  ],
  "receipts": [
    {
      "status": "0x1",
      "cumulativeGasUsed": "0x7d937",
      "logs": [
        {
          "address": "0xf316b4698b1d147ac0a6b0e63a7e012070b89ce0",
          "topics": [
            "0x1e75f48d565290d5600a063ae01f58a35d4cd270ef71d444bbeb914224ca5d77"
          ],
          "data": "0x",
          "blockHash": "0xbdf5a2abc27ceb4f91dc0a14fe7093ee24786f1a80f99f49e9cd3367d475f357",
          "blockNumber": "0x594415d",
          "blockTimestamp": "0x69a7122e",
          "transactionHash": "0x42560068f07f6d62633566c519e4937ea21b367128e71a957fd0e64cb3fc4879",
          "transactionIndex": "0x6",
          "logIndex": "0xc",
          "removed": false
        }
      ],
      "logsBloom": "0x00000000000000000000000000000000000000000000000000000000000000000000000000000000000000000000000000000000000000000000000000000000000000000000000000000000000000000000000008000000000000000000000000000000000000000080000000000000000000000000000000000000000000000000000000000000000000000000000000800000000000000000000800000000004000000000000000000000000000000004000000000000000000000000000000000000000000000000000000000000000000000000000000000000000000000000000000000000000000000000000000000000000000000000000000000000",
      "type": "0x0",
      "transactionHash": "0x42560068f07f6d62633566c519e4937ea21b367128e71a957fd0e64cb3fc4879",
      "transactionIndex": "0x6",
      "blockHash": "0xbdf5a2abc27ceb4f91dc0a14fe7093ee24786f1a80f99f49e9cd3367d475f357",
      "blockNumber": "0x594415d",
      "gasUsed": "0x9b36",
      "effectiveGasPrice": "0x5f5e100",
      "from": "0x4319f90913bf7dc168887d45f3bfdd9a2c5c9291",
      "to": "0xf316b4698b1d147ac0a6b0e63a7e012070b89ce0",
      "contractAddress": null
    }
  ],
  "libraries": [],
  "pending": [],
  "returns": {},
  "timestamp": 1772556846,
  "chain": 97,
  "commit": "1e578f5"
}