{
  "transactions": [
    {
      "hash": "0xdd94c921e12c4d3ed69f55d5b68bae3d39825d17c60e3b825803f8fee91dbc72",
      "transactionType": "CALL",
      "contractName": null,
      "contractAddress": "0xf316b4698b1d147ac0a6b0e63a7e012070b89ce0",
      "function": "setBetAmounts(uint256[])",
      "arguments": [
        "[100000000000000000, 1000000000000000000, 2000000000000000000, 5000000000000000000, 10000000000000000000]"
      ],
      "transaction": {
        "from": "0x4319f90913bf7dc168887d45f3bfdd9a2c5c9291",
        "to": "0xf316b4698b1d147ac0a6b0e63a7e012070b89ce0",
        "gas": "0x121eb",
        "value": "0x0",
        "input": "0x4157b8f100000000000000000000000000000000000000000000000000000000000000200000000000000000000000000000000000000000000000000000000000000005000000000000000000000000000000000000000000000000016345785d8a00000000000000000000000000000000000000000000000000000de0b6b3a76400000000000000000000000000000000000000000000000000001bc16d674ec800000000000000000000000000000000000000000000000000004563918244f400000000000000000000000000000000000000000000000000008ac7230489e80000",
        "nonce": "0x7",
        "chainId": "0x61"
      },
      "additionalContracts": [],
      "isFixedGasLimit": false
    }
  ],
  "receipts": [
    {
      "status": "0x1",
      "cumulativeGasUsed": "0x6b427",
      "logs": [
        {
          "address": "0xf316b4698b1d147ac0a6b0e63a7e012070b89ce0",
          "topics": [
            "0x1e75f48d565290d5600a063ae01f58a35d4cd270ef71d444bbeb914224ca5d77"
          ],
          "data": "0x",
          "blockHash": "0xf2dee43dbc036e82fa589f3427ec1d71dcf5e7e70cea8a2f238064217df3b032",
          "blockNumber": "0x5937a0f",
          "blockTimestamp": "0x69a6b846",
          "transactionHash": "0xdd94c921e12c4d3ed69f55d5b68bae3d39825d17c60e3b825803f8fee91dbc72",
          "transactionIndex": "0x2",
          "logIndex": "0x0",
          "removed": false
        }
      ],
      "logsBloom": "0x00000000000000000000000000000000000000000000000000000000000000000000000000000000000000000000000000000000000000000000000000000000000000000000000000000000000000000000000008000000000000000000000000000000000000000080000000000000000000000000000000000000000000000000000000000000000000000000000000800000000000000000000800000000004000000000000000000000000000000004000000000000000000000000000000000000000000000000000000000000000000000000000000000000000000000000000000000000000000000000000000000000000000000000000000000000",
      "type": "0x0",
      "transactionHash": "0xdd94c921e12c4d3ed69f55d5b68bae3d39825d17c60e3b825803f8fee91dbc72",
      "transactionIndex": "0x2",
      "blockHash": "0xf2dee43dbc036e82fa589f3427ec1d71dcf5e7e70cea8a2f238064217df3b032",
      "blockNumber": "0x5937a0f",
      "gasUsed": "0xd1e6",
      "effectiveGasPrice": "0x5f5e100",
      "from": "0x4319f90913bf7dc168887d45f3bfdd9a2c5c9291",
      "to": "0xf316b4698b1d147ac0a6b0e63a7e012070b89ce0",
      "contractAddress": null
    }
  ],
  "libraries": [],
  "pending": [],
  "returns": {},
  "timestamp": 1772533833,
  "chain": 97,
  "commit": "9a2beb3"
}