{
  "transactions": [
    {
      "hash": "0x08f3d8d425c27fff057673156dd8dbb411f5609e51d600c87937208bb3b4d217",
      "transactionType": "CALL",
      "contractName": null,
      "contractAddress": "0x5D55E23E6D9CEd6c2B9abBDfE5cEBAd1C4567333",
      "function": "updateVRF(uint32,uint16,bool)",
      "arguments": ["300000", "3", "false"],
      "transaction": {
        "from": "0x4319f90913bf7dc168887d45f3bfdd9a2c5c9291",
        "to": "0x5D55E23E6D9CEd6c2B9abBDfE5cEBAd1C4567333",
        "gas": "0xad5e",
        "value": "0x0",
        "input": "0x1f7a279700000000000000000000000000000000000000000000000000000000000493e000000000000000000000000000000000000000000000000000000000000000030000000000000000000000000000000000000000000000000000000000000000",
        "nonce": "0x11",
        "chainId": "0x61"
      },
      "additionalContracts": [],
      "isFixedGasLimit": false
    }
  ],
  "receipts": [
    {
      "status": "0x1",
      "cumulativeGasUsed": "0x1067f",
      "logs": [
        {
          "address": "0x5D55E23E6D9CEd6c2B9abBDfE5cEBAd1C4567333",
          "topics": [
            "0x7b09c7bf1d95c387c8b4fea5046dae984656357ada299caa5235a4f3972cfc2b"
          ],
          "data": "0x00000000000000000000000000000000000000000000000000000000000493e000000000000000000000000000000000000000000000000000000000000000030000000000000000000000000000000000000000000000000000000000000000",
          "blockHash": "0xb528367139daabee9b6f39cd1f278b2074f733b44284629d75175dffd0d83ce8",
          "blockNumber": "0x595af8d",
          "blockTimestamp": "0x69a7b755",
          "transactionHash": "0x08f3d8d425c27fff057673156dd8dbb411f5609e51d600c87937208bb3b4d217",
          "transactionIndex": "0x1",
          "logIndex": "0x1",
          "removed": false
        }
      ],
      "logsBloom": "0x00000000000000000100000000000000000000000000000000000000000000000000000000000000000000000000000000000000000000000000000001000000000000000000000000000000000000000000000000000000000000000000000000000000000040000000000000000000000000000000000000000000000000000000000000000000000040000000000000000000000000000000000000000000000000000000000000020000000000000000000000000000000000000400000000000000000000000000000000000000000000000000000000000000000000000000000000000000000000000000000000000000000000000000000000000000",
      "type": "0x0",
      "transactionHash": "0x08f3d8d425c27fff057673156dd8dbb411f5609e51d600c87937208bb3b4d217",
      "transactionIndex": "0x1",
      "blockHash": "0xb528367139daabee9b6f39cd1f278b2074f733b44284629d75175dffd0d83ce8",
      "blockNumber": "0x595af8d",
      "gasUsed": "0x7d84",
      "effectiveGasPrice": "0x5f5e100",
      "from": "0x4319f90913bf7dc168887d45f3bfdd9a2c5c9291",
      "to": "0x5D55E23E6D9CEd6c2B9abBDfE5cEBAd1C4567333",
      "contractAddress": null
    }
  ],
  "libraries": [],
  "pending": [],
  "returns": {},
  "timestamp": 1772599128,
  "chain": 97,
  "commit": "5ece6ce"
}
