{
  "transactions": [
    {
      "hash": "0x2b9f5928685aee49656a69b170ffb61013bdd35dd109059853aeb619d5af55e2",
      "transactionType": "CALL",
      "contractName": null,
      "contractAddress": "0x5d55e23e6d9ced6c2b9abbdfe5cebad1c4567333",
      "function": "updateVRF(uint32,uint16,bool)",
      "arguments": [
        "300000",
        "3",
        "false"
      ],
      "transaction": {
        "from": "0x4319f90913bf7dc168887d45f3bfdd9a2c5c9291",
        "to": "0x5d55e23e6d9ced6c2b9abbdfe5cebad1c4567333",
        "gas": "0xaf26",
        "value": "0x0",
        "input": "0x1f7a279700000000000000000000000000000000000000000000000000000000000493e000000000000000000000000000000000000000000000000000000000000000030000000000000000000000000000000000000000000000000000000000000000",
        "nonce": "0x1b",
        "chainId": "0x61"
      },
      "additionalContracts": [],
      "isFixedGasLimit": false
    }
  ],
  "receipts": [
    {
      "status": "0x1",
      "cumulativeGasUsed": "0x2e2131",
      "logs": [
        {
          "address": "0x5d55e23e6d9ced6c2b9abbdfe5cebad1c4567333",
          "topics": [
            "0x7b09c7bf1d95c387c8b4fea5046dae984656357ada299caa5235a4f3972cfc2b"
          ],
          "data": "0x00000000000000000000000000000000000000000000000000000000000493e000000000000000000000000000000000000000000000000000000000000000030000000000000000000000000000000000000000000000000000000000000000",
          "blockHash": "0xc15bea343126bea70d02e372c560615c84ee15c463f9cc604d0d463e476114ad",
          "blockNumber": "0x595c470",
          "blockTimestamp": "0x69a7c0c1",
          "transactionHash": "0x2b9f5928685aee49656a69b170ffb61013bdd35dd109059853aeb619d5af55e2",
          "transactionIndex": "0x1d",
          "logIndex": "0x47",
          "removed": false
        }
      ],
      "logsBloom": "0x00000000000000000100000000000000000000000000000000000000000000000000000000080000000000000000000000000000000000000000000000000000000000000000000000000000000000000000000000000000000000000000000000000000000000000000000000000000000000000000000000000000000000000000000000000000000040000000000000000200000000000000000000000000000000000000000000000000000000000000000000000000000000000400000000000000000000000000000000000000000000000000000000000000000000000080000000000000000000000000000000000000000000000000000000000000",
      "type": "0x0",
      "transactionHash": "0x2b9f5928685aee49656a69b170ffb61013bdd35dd109059853aeb619d5af55e2",
      "transactionIndex": "0x1d",
      "blockHash": "0xc15bea343126bea70d02e372c560615c84ee15c463f9cc604d0d463e476114ad",
      "blockNumber": "0x595c470",
      "gasUsed": "0x77c3",
      "effectiveGasPrice": "0x5f5e100",
      "from": "0x4319f90913bf7dc168887d45f3bfdd9a2c5c9291",
      "to": "0x5d55e23e6d9ced6c2b9abbdfe5cebad1c4567333",
      "contractAddress": null
    }
  ],
  "libraries": [],
  "pending": [],
  "returns": {},
  "timestamp": 1772601539,
  "chain": 97,
  "commit": "5ece6ce"
}