{
  "transactions": [
    {
      "hash": "0x1da94b186a7c87ba33c6afd97b368ebd3042ef43fab628d1c64c74263f743ed9",
      "transactionType": "CALL",
      "contractName": null,
      "contractAddress": "0x0cb3246ec8451b708612f9e3e44b8816b82fccd5",
      "function": "approve(address,uint256)",
      "arguments": [
        "0x5D55E23E6D9CEd6c2B9abBDfE5cEBAd1C4567333",
        "1000000000000000000"
      ],
      "transaction": {
        "from": "0x4319f90913bf7dc168887d45f3bfdd9a2c5c9291",
        "to": "0x0cb3246ec8451b708612f9e3e44b8816b82fccd5",
        "gas": "0xf7f5",
        "value": "0x0",
        "input": "0x095ea7b30000000000000000000000005d55e23e6d9ced6c2b9abbdfe5cebad1c45673330000000000000000000000000000000000000000000000000de0b6b3a7640000",
        "nonce": "0x22",
        "chainId": "0x61"
      },
      "additionalContracts": [],
      "isFixedGasLimit": false
    },
    {
      "hash": "0x03ea08437a8dabc5b42290301532575917e3af7a351798292e612e61a714a751",
      "transactionType": "CALL",
      "contractName": null,
      "contractAddress": "0x5d55e23e6d9ced6c2b9abbdfe5cebad1c4567333",
      "function": "placeBet(uint256)",
      "arguments": [
        "0"
      ],
      "transaction": {
        "from": "0x4319f90913bf7dc168887d45f3bfdd9a2c5c9291",
        "to": "0x5d55e23e6d9ced6c2b9abbdfe5cebad1c4567333",
        "gas": "0x42aa7",
        "value": "0x0",
        "input": "0x10fe7c480000000000000000000000000000000000000000000000000000000000000000",
        "nonce": "0x23",
        "chainId": "0x61"
      },
      "additionalContracts": [],
      "isFixedGasLimit": false
    }
  ],
  "receipts": [
    {
      "status": "0x1",
      "cumulativeGasUsed": "0x48247",
      "logs": [
        {
          "address": "0x0cb3246ec8451b708612f9e3e44b8816b82fccd5",
          "topics": [
            "0x8c5be1e5ebec7d5bd14f71427d1e84f3dd0314c0f7b2291e5b200ac8c7c3b925",
            "0x0000000000000000000000004319f90913bf7dc168887d45f3bfdd9a2c5c9291",
            "0x0000000000000000000000005d55e23e6d9ced6c2b9abbdfe5cebad1c4567333"
          ],
          "data": "0x0000000000000000000000000000000000000000000000000de0b6b3a7640000",
          "blockHash": "0xba307c45318373c713b086585dc853112aeba570f017363794005ba22366bf24",
          "blockNumber": "0x595cd02",
          "blockTimestamp": "0x69a7c49f",
          "transactionHash": "0x1da94b186a7c87ba33c6afd97b368ebd3042ef43fab628d1c64c74263f743ed9",
          "transactionIndex": "0x4",
          "logIndex": "0x5",
          "removed": false
        }
      ],
      "logsBloom": "0x00000000000000000000000000000000000000000000000000000000000000000000000000000000000000400000000000000000000000000000000000200000000000002000000000000000000000000000000000000000000000000000000000000000000000000000008000000200000000000000000000000000000000000000000000000000000000000000000000000000000000000000000000000000020000000000000000000000000000000000000000000000000000000004000000000000000000000000000000000000000000000000000000000000000000000010000000000000000000400000000200000000000000020000020000000000",
      "type": "0x0",
      "transactionHash": "0x1da94b186a7c87ba33c6afd97b368ebd3042ef43fab628d1c64c74263f743ed9",
      "transactionIndex": "0x4",
      "blockHash": "0xba307c45318373c713b086585dc853112aeba570f017363794005ba22366bf24",
      "blockNumber": "0x595cd02",
      "gasUsed": "0xb385",
      "effectiveGasPrice": "0x5f5e100",
      "from": "0x4319f90913bf7dc168887d45f3bfdd9a2c5c9291",
      "to": "0x0cb3246ec8451b708612f9e3e44b8816b82fccd5",
      "contractAddress": null
    },
    {
      "status": "0x1",
      "cumulativeGasUsed": "0x9cd0e",
      "logs": [
        {
          "address": "0x0cb3246ec8451b708612f9e3e44b8816b82fccd5",
          "topics": [
            "0xddf252ad1be2c89b69c2b068fc378daa952ba7f163c4a11628f55a4df523b3ef",
            "0x0000000000000000000000004319f90913bf7dc168887d45f3bfdd9a2c5c9291",
            "0x0000000000000000000000005d55e23e6d9ced6c2b9abbdfe5cebad1c4567333"
          ],
          "data": "0x0000000000000000000000000000000000000000000000000de0b6b3a7640000",
          "blockHash": "0xb36e448e836355a56f03893c5f99dbd771f1f942c2cd7f8f783beb471aa9d90c",
          "blockNumber": "0x595cd03",
          "blockTimestamp": "0x69a7c49f",
          "transactionHash": "0x03ea08437a8dabc5b42290301532575917e3af7a351798292e612e61a714a751",
          "transactionIndex": "0x6",
          "logIndex": "0xa",
          "removed": false
        },
        {
          "address": "0xda3b641d438362c440ac5458c57e00a712b66700",
          "topics": [
            "0xeb0e3652e0f44f417695e6e90f2f42c99b65cd7169074c5a654b16b9748c3a4e",
            "0x8596b430971ac45bdf6088665b9ad8e8630c9d5049ab54b14dff711bee7c0e26",
            "0xc29a1fb630f7c045ba20a6f94cdbcd141dc17092fb3afd014c4c4fa984371227",
            "0x000000000000000000000000471506e6aded0b9811d05b8cac8db25ee839ac94"
          ],
          "data": "0xbaca25098028a608f06d2579adaf2d67abdb6433497fe602c001250bd0fdace099f2ea6ca4679efa48a8f4a9dacdcba066b6f1784818ce099e7b4a91e216856f0000000000000000000000000000000000000000000000000000000000000003000000000000000000000000000000000000000000000000000000000004dad2000000000000000000000000000000000000000000000000000000000000000100000000000000000000000000000000000000000000000000000000000000c0000000000000000000000000000000000000000000000000000000000000002492fd1338000000000000000000000000000000000000000000000000000000000000000100000000000000000000000000000000000000000000000000000000",
          "blockHash": "0xb36e448e836355a56f03893c5f99dbd771f1f942c2cd7f8f783beb471aa9d90c",
          "blockNumber": "0x595cd03",
          "blockTimestamp": "0x69a7c49f",
          "transactionHash": "0x03ea08437a8dabc5b42290301532575917e3af7a351798292e612e61a714a751",
          "transactionIndex": "0x6",
          "logIndex": "0xb",
          "removed": false
        },
        {
          "address": "0x5d55e23e6d9ced6c2b9abbdfe5cebad1c4567333",
          "topics": [
            "0x631131d4f69c2825a32d691d67d3707f79d2e5da1c241c756649f47f7d811841",
            "0xbaca25098028a608f06d2579adaf2d67abdb6433497fe602c001250bd0fdace0",
            "0x0000000000000000000000004319f90913bf7dc168887d45f3bfdd9a2c5c9291",
            "0x0000000000000000000000000cb3246ec8451b708612f9e3e44b8816b82fccd5"
          ],
          "data": "0x0000000000000000000000000000000000000000000000000de0b6b3a764000000000000000000000000000000000000000000000000000000003b6abb99f0000000000000000000000000000000000000000000000000000000000069a7c49f",
          "blockHash": "0xb36e448e836355a56f03893c5f99dbd771f1f942c2cd7f8f783beb471aa9d90c",
          "blockNumber": "0x595cd03",
          "blockTimestamp": "0x69a7c49f",
          "transactionHash": "0x03ea08437a8dabc5b42290301532575917e3af7a351798292e612e61a714a751",
          "transactionIndex": "0x6",
          "logIndex": "0xc",
          "removed": false
        }
      ],
      "logsBloom": "0x00000000000000000010000000000000000000000000000020200000000000000000000000080000000000400000000000000000000000000000000000000000000000002000000800000008000000000000080000200000000000000000000000000000000200000000008000000200000000000000000000800010000000000808000000000000000000800200000000000200048020000000000008000000000000000000800000000000000000000000000000000500000000100004000000000002000000000000000000000800000000000000000004000000000000000080000040000000000000400000000200000000000000024000020000000000",
      "type": "0x0",
      "transactionHash": "0x03ea08437a8dabc5b42290301532575917e3af7a351798292e612e61a714a751",
      "transactionIndex": "0x6",
      "blockHash": "0xb36e448e836355a56f03893c5f99dbd771f1f942c2cd7f8f783beb471aa9d90c",
      "blockNumber": "0x595cd03",
      "gasUsed": "0x36c26",
      "effectiveGasPrice": "0x5f5e100",
      "from": "0x4319f90913bf7dc168887d45f3bfdd9a2c5c9291",
      "to": "0x5d55e23e6d9ced6c2b9abbdfe5cebad1c4567333",
      "contractAddress": null
    }
  ],
  "libraries": [],
  "pending": [],
  "returns": {},
  "timestamp": 1772602529,
  "chain": 97,
  "commit": "5ece6ce"
}