{
  "transactions": [
    {
      "hash": "0x5da704a3ee3b01d5edc21f29d32ea1b2c7a893119c6f87fc2f973f6d6ebd2602",
      "transactionType": "CALL",
      "contractName": null,
      "contractAddress": "0x84b9b910527ad5c03a9ca831909e21e236ea7b06",
      "function": "approve(address,uint256)",
      "arguments": [
        "0x18A181748cA82500090C96E2d2D7194bB3C2b16A",
        "1000000000000000000"
      ],
      "transaction": {
        "from": "0x4319f90913bf7dc168887d45f3bfdd9a2c5c9291",
        "to": "0x84b9b910527ad5c03a9ca831909e21e236ea7b06",
        "gas": "0xf959",
        "value": "0x0",
        "input": "0x095ea7b300000000000000000000000018a181748ca82500090c96e2d2d7194bb3c2b16a0000000000000000000000000000000000000000000000000de0b6b3a7640000",
        "nonce": "0xe",
        "chainId": "0x61"
      },
      "additionalContracts": [],
      "isFixedGasLimit": false
    },
    {
      "hash": "0xbe95b60f11003da747a52af4626ed211989e139f2454a731ee1075913b58137f",
      "transactionType": "CALL",
      "contractName": null,
      "contractAddress": "0x18a181748ca82500090c96e2d2d7194bb3c2b16a",
      "function": "placeBet(uint256)",
      "arguments": [
        "0"
      ],
      "transaction": {
        "from": "0x4319f90913bf7dc168887d45f3bfdd9a2c5c9291",
        "to": "0x18a181748ca82500090c96e2d2d7194bb3c2b16a",
        "gas": "0x48ccc",
        "value": "0x0",
        "input": "0x10fe7c480000000000000000000000000000000000000000000000000000000000000000",
        "nonce": "0xf",
        "chainId": "0x61"
      },
      "additionalContracts": [],
      "isFixedGasLimit": false
    }
  ],
  "receipts": [
    {
      "status": "0x1",
      "cumulativeGasUsed": "0x120a6",
      "logs": [
        {
          "address": "0x84b9b910527ad5c03a9ca831909e21e236ea7b06",
          "topics": [
            "0x8c5be1e5ebec7d5bd14f71427d1e84f3dd0314c0f7b2291e5b200ac8c7c3b925",
            "0x0000000000000000000000004319f90913bf7dc168887d45f3bfdd9a2c5c9291",
            "0x00000000000000000000000018a181748ca82500090c96e2d2d7194bb3c2b16a"
          ],
          "data": "0x0000000000000000000000000000000000000000000000000de0b6b3a7640000",
          "blockHash": "0xda8e98c54ce7e3a052ea4a9dac5553762dc0515d5b712dc25dcf2af48c69c12e",
          "blockNumber": "0x5944827",
          "blockTimestamp": "0x69a7153e",
          "transactionHash": "0x5da704a3ee3b01d5edc21f29d32ea1b2c7a893119c6f87fc2f973f6d6ebd2602",
          "transactionIndex": "0x1",
          "logIndex": "0x1",
          "removed": false
        }
      ],
      "logsBloom": "0x00000000000008000000000000000000000000000000000000000000000000000000000000000000000000400000000000000000000040000000000004200000000000000000000000000000000000000000000000000000000000000000000000000000000000000000000000000204000000000004000000000000000000000000000000000000000000000000000000000000000000000000000000000000020000000000000000000000000000000000000000000000000000000000000000000040000000000000000000000000000000000000000000000000000000000010000000000000000000000000000000000000000000000000020000000000",
      "type": "0x0",
      "transactionHash": "0x5da704a3ee3b01d5edc21f29d32ea1b2c7a893119c6f87fc2f973f6d6ebd2602",
      "transactionIndex": "0x1",
      "blockHash": "0xda8e98c54ce7e3a052ea4a9dac5553762dc0515d5b712dc25dcf2af48c69c12e",
      "blockNumber": "0x5944827",
      "gasUsed": "0xb487",
      "effectiveGasPrice": "0x5f5e100",
      "from": "0x4319f90913bf7dc168887d45f3bfdd9a2c5c9291",
      "to": "0x84b9b910527ad5c03a9ca831909e21e236ea7b06",
      "contractAddress": null
    },
    {
      "status": "0x1",
      "cumulativeGasUsed": "0x232617",
      "logs": [
        {
          "address": "0x84b9b910527ad5c03a9ca831909e21e236ea7b06",
          "topics": [
            "0xddf252ad1be2c89b69c2b068fc378daa952ba7f163c4a11628f55a4df523b3ef",
            "0x0000000000000000000000004319f90913bf7dc168887d45f3bfdd9a2c5c9291",
            "0x00000000000000000000000018a181748ca82500090c96e2d2d7194bb3c2b16a"
          ],
          "data": "0x0000000000000000000000000000000000000000000000000de0b6b3a7640000",
          "blockHash": "0xd0d75b5c6f6f93f0a9f4ffa9113364820f55828e7d68a880fe9a8bc34cd6344c",
          "blockNumber": "0x5944830",
          "blockTimestamp": "0x69a71543",
          "transactionHash": "0xbe95b60f11003da747a52af4626ed211989e139f2454a731ee1075913b58137f",
          "transactionIndex": "0x1d",
          "logIndex": "0x3b",
          "removed": false
        },
        {
          "address": "0xda3b641d438362c440ac5458c57e00a712b66700",
          "topics": [
            "0xeb0e3652e0f44f417695e6e90f2f42c99b65cd7169074c5a654b16b9748c3a4e",
            "0x8596b430971ac45bdf6088665b9ad8e8630c9d5049ab54b14dff711bee7c0e26",
            "0xc29a1fb630f7c045ba20a6f94cdbcd141dc17092fb3afd014c4c4fa984371227",
            "0x000000000000000000000000471506e6aded0b9811d05b8cac8db25ee839ac94"
          ],
          "data": "0x42f42fb17b67329c2c19bc1814474aaedf665f03fe31c38b1bc0dd2767936b064744d6bbc858dae1e5560d34de7982206ad591caca980cf23c8003e989ba6f9d0000000000000000000000000000000000000000000000000000000000000003000000000000000000000000000000000000000000000000000000000004dad2000000000000000000000000000000000000000000000000000000000000000100000000000000000000000000000000000000000000000000000000000000c0000000000000000000000000000000000000000000000000000000000000002492fd1338000000000000000000000000000000000000000000000000000000000000000100000000000000000000000000000000000000000000000000000000",
          "blockHash": "0xd0d75b5c6f6f93f0a9f4ffa9113364820f55828e7d68a880fe9a8bc34cd6344c",
          "blockNumber": "0x5944830",
          "blockTimestamp": "0x69a71543",
          "transactionHash": "0xbe95b60f11003da747a52af4626ed211989e139f2454a731ee1075913b58137f",
          "transactionIndex": "0x1d",
          "logIndex": "0x3c",
          "removed": false
        },
        {
          "address": "0x18a181748ca82500090c96e2d2d7194bb3c2b16a",
          "topics": [
            "0x631131d4f69c2825a32d691d67d3707f79d2e5da1c241c756649f47f7d811841",
            "0x42f42fb17b67329c2c19bc1814474aaedf665f03fe31c38b1bc0dd2767936b06",
            "0x0000000000000000000000004319f90913bf7dc168887d45f3bfdd9a2c5c9291",
            "0x00000000000000000000000084b9b910527ad5c03a9ca831909e21e236ea7b06"
          ],
          "data": "0x0000000000000000000000000000000000000000000000000de0b6b3a764000000000000000000000000000000000000000000000000000000003b6abb99f0000000000000000000000000000000000000000000000000000000000069a71543",
          "blockHash": "0xd0d75b5c6f6f93f0a9f4ffa9113364820f55828e7d68a880fe9a8bc34cd6344c",
          "blockNumber": "0x5944830",
          "blockTimestamp": "0x69a71543",
          "transactionHash": "0xbe95b60f11003da747a52af4626ed211989e139f2454a731ee1075913b58137f",
          "transactionIndex": "0x1d",
          "logIndex": "0x3d",
          "removed": false
        }
      ],
      "logsBloom": "0x00000000000008000000000000000400000000000000000000200100000000000000000000000000000000400000000000000000000040000000000005000000000000000000000800000008000000000000080000200000000000000000000000000000000240000000000000000204000000000004000000800010000000000808000000000000000000800200000000000000040020000000000008000004000000000000800000020000000000000000000000400100000000100000000000000042000000000000100000000800000000000000000000000000000000000000000000000000000000000000000000000000000000004100020000000000",
      "type": "0x0",
      "transactionHash": "0xbe95b60f11003da747a52af4626ed211989e139f2454a731ee1075913b58137f",
      "transactionIndex": "0x1d",
      "blockHash": "0xd0d75b5c6f6f93f0a9f4ffa9113364820f55828e7d68a880fe9a8bc34cd6344c",
      "blockNumber": "0x5944830",
      "gasUsed": "0x3845a",
      "effectiveGasPrice": "0x5f5e100",
      "from": "0x4319f90913bf7dc168887d45f3bfdd9a2c5c9291",
      "to": "0x18a181748ca82500090c96e2d2d7194bb3c2b16a",
      "contractAddress": null
    }
  ],
  "libraries": [],
  "pending": [],
  "returns": {},
  "timestamp": 1772557636,
  "chain": 97,
  "commit": "1e578f5"
}