{
  "transactions": [
    {
      "hash": "0xf981f6e2076193424e3c0518ec1e1dee02846a38c8d9602095a669da2dc919b4",
      "transactionType": "CALL",
      "contractName": null,
      "contractAddress": "0x84b9b910527ad5c03a9ca831909e21e236ea7b06",
      "function": "approve(address,uint256)",
      "arguments": [
        "0x18A181748cA82500090C96E2d2D7194bB3C2b16A",
        "1000000000000000000"
      ],
      "transaction": {
        "from": "0x4319f90913bf7dc168887d45f3bfdd9a2c5c9291",
        "to": "0x84b9b910527ad5c03a9ca831909e21e236ea7b06",
        "gas": "0xf959",
        "value": "0x0",
        "input": "0x095ea7b300000000000000000000000018a181748ca82500090c96e2d2d7194bb3c2b16a0000000000000000000000000000000000000000000000000de0b6b3a7640000",
        "nonce": "0xc",
        "chainId": "0x61"
      },
      "additionalContracts": [],
      "isFixedGasLimit": false
    },
    {
      "hash": "0x042ef98cc4c1bd7123053f544ee8989b5bfd08aa4b068548eadc862faeaa3f4b",
      "transactionType": "CALL",
      "contractName": null,
      "contractAddress": "0x18a181748ca82500090c96e2d2d7194bb3c2b16a",
      "function": "placeBet(uint256)",
      "arguments": [
        "0"
      ],
      "transaction": {
        "from": "0x4319f90913bf7dc168887d45f3bfdd9a2c5c9291",
        "to": "0x18a181748ca82500090c96e2d2d7194bb3c2b16a",
        "gas": "0x48ccc",
        "value": "0x0",
        "input": "0x10fe7c480000000000000000000000000000000000000000000000000000000000000000",
        "nonce": "0xd",
        "chainId": "0x61"
      },
      "additionalContracts": [],
      "isFixedGasLimit": false
    }
  ],
  "receipts": [
    {
      "status": "0x1",
      "cumulativeGasUsed": "0xc6254",
      "logs": [
        {
          "address": "0x84b9b910527ad5c03a9ca831909e21e236ea7b06",
          "topics": [
            "0x8c5be1e5ebec7d5bd14f71427d1e84f3dd0314c0f7b2291e5b200ac8c7c3b925",
            "0x0000000000000000000000004319f90913bf7dc168887d45f3bfdd9a2c5c9291",
            "0x00000000000000000000000018a181748ca82500090c96e2d2d7194bb3c2b16a"
          ],
          "data": "0x0000000000000000000000000000000000000000000000000de0b6b3a7640000",
          "blockHash": "0x7050861c197117b2f40b462956617b161fd4a5171e6105e2dc9e81153c2e5f1b",
          "blockNumber": "0x5944463",
          "blockTimestamp": "0x69a7138d",
          "transactionHash": "0xf981f6e2076193424e3c0518ec1e1dee02846a38c8d9602095a669da2dc919b4",
          "transactionIndex": "0x7",
          "logIndex": "0xd",
          "removed": false
        }
      ],
      "logsBloom": "0x00000000000008000000000000000000000000000000000000000000000000000000000000000000000000400000000000000000000040000000000004200000000000000000000000000000000000000000000000000000000000000000000000000000000000000000000000000204000000000004000000000000000000000000000000000000000000000000000000000000000000000000000000000000020000000000000000000000000000000000000000000000000000000000000000000040000000000000000000000000000000000000000000000000000000000010000000000000000000000000000000000000000000000000020000000000",
      "type": "0x0",
      "transactionHash": "0xf981f6e2076193424e3c0518ec1e1dee02846a38c8d9602095a669da2dc919b4",
      "transactionIndex": "0x7",
      "blockHash": "0x7050861c197117b2f40b462956617b161fd4a5171e6105e2dc9e81153c2e5f1b",
      "blockNumber": "0x5944463",
      "gasUsed": "0xb487",
      "effectiveGasPrice": "0x5f5e100",
      "from": "0x4319f90913bf7dc168887d45f3bfdd9a2c5c9291",
      "to": "0x84b9b910527ad5c03a9ca831909e21e236ea7b06",
      "contractAddress": null
    },
    {
      "status": "0x1",
      "cumulativeGasUsed": "0xfe6ae",
      "logs": [
        {
          "address": "0x84b9b910527ad5c03a9ca831909e21e236ea7b06",
          "topics": [
            "0xddf252ad1be2c89b69c2b068fc378daa952ba7f163c4a11628f55a4df523b3ef",
            "0x0000000000000000000000004319f90913bf7dc168887d45f3bfdd9a2c5c9291",
            "0x00000000000000000000000018a181748ca82500090c96e2d2d7194bb3c2b16a"
          ],
          "data": "0x0000000000000000000000000000000000000000000000000de0b6b3a7640000",
          "blockHash": "0x7050861c197117b2f40b462956617b161fd4a5171e6105e2dc9e81153c2e5f1b",
          "blockNumber": "0x5944463",
          "blockTimestamp": "0x69a7138d",
          "transactionHash": "0x042ef98cc4c1bd7123053f544ee8989b5bfd08aa4b068548eadc862faeaa3f4b",
          "transactionIndex": "0x8",
          "logIndex": "0xe",
          "removed": false
        },
        {
          "address": "0xda3b641d438362c440ac5458c57e00a712b66700",
          "topics": [
            "0xeb0e3652e0f44f417695e6e90f2f42c99b65cd7169074c5a654b16b9748c3a4e",
            "0x8596b430971ac45bdf6088665b9ad8e8630c9d5049ab54b14dff711bee7c0e26",
            "0xc29a1fb630f7c045ba20a6f94cdbcd141dc17092fb3afd014c4c4fa984371227",
            "0x000000000000000000000000471506e6aded0b9811d05b8cac8db25ee839ac94"
          ],
          "data": "0x486970c7ce685ab78c241d72eab728d198ef6431b98e65b65000d1d3350217d3ff20746e93b9b3b70babf50c8f3a4a7b7a8491de10277bd005143435084882630000000000000000000000000000000000000000000000000000000000000003000000000000000000000000000000000000000000000000000000000004dad2000000000000000000000000000000000000000000000000000000000000000100000000000000000000000000000000000000000000000000000000000000c0000000000000000000000000000000000000000000000000000000000000002492fd1338000000000000000000000000000000000000000000000000000000000000000100000000000000000000000000000000000000000000000000000000",
          "blockHash": "0x7050861c197117b2f40b462956617b161fd4a5171e6105e2dc9e81153c2e5f1b",
          "blockNumber": "0x5944463",
          "blockTimestamp": "0x69a7138d",
          "transactionHash": "0x042ef98cc4c1bd7123053f544ee8989b5bfd08aa4b068548eadc862faeaa3f4b",
          "transactionIndex": "0x8",
          "logIndex": "0xf",
          "removed": false
        },
        {
          "address": "0x18a181748ca82500090c96e2d2d7194bb3c2b16a",
          "topics": [
            "0x631131d4f69c2825a32d691d67d3707f79d2e5da1c241c756649f47f7d811841",
            "0x486970c7ce685ab78c241d72eab728d198ef6431b98e65b65000d1d3350217d3",
            "0x0000000000000000000000004319f90913bf7dc168887d45f3bfdd9a2c5c9291",
            "0x00000000000000000000000084b9b910527ad5c03a9ca831909e21e236ea7b06"
          ],
          "data": "0x0000000000000000000000000000000000000000000000000de0b6b3a764000000000000000000000000000000000000000000000000000000003b6abb99f0000000000000000000000000000000000000000000000000000000000069a7138d",
          "blockHash": "0x7050861c197117b2f40b462956617b161fd4a5171e6105e2dc9e81153c2e5f1b",
          "blockNumber": "0x5944463",
          "blockTimestamp": "0x69a7138d",
          "transactionHash": "0x042ef98cc4c1bd7123053f544ee8989b5bfd08aa4b068548eadc862faeaa3f4b",
          "transactionIndex": "0x8",
          "logIndex": "0x10",
          "removed": false
        }
      ],
      "logsBloom": "0x00000000000008000000000000000400000000000000000000200000000000000000000000000000000000400000000000000000000040000000000005000000000000000000000800000008000000000000080000200000000000000000000000000200000240000000000000000204000000000004000000800010000000000808000000000200000000800200000000000000040020000000000008000004000000000000800000020000000000000000000000400100000000100000000040000042000000000000000000000800000000000000000000000000000000000000000000000000000000000000000000000000000000004000020000000000",
      "type": "0x0",
      "transactionHash": "0x042ef98cc4c1bd7123053f544ee8989b5bfd08aa4b068548eadc862faeaa3f4b",
      "transactionIndex": "0x8",
      "blockHash": "0x7050861c197117b2f40b462956617b161fd4a5171e6105e2dc9e81153c2e5f1b",
      "blockNumber": "0x5944463",
      "gasUsed": "0x3845a",
      "effectiveGasPrice": "0x5f5e100",
      "from": "0x4319f90913bf7dc168887d45f3bfdd9a2c5c9291",
      "to": "0x18a181748ca82500090c96e2d2d7194bb3c2b16a",
      "contractAddress": null
    }
  ],
  "libraries": [],
  "pending": [],
  "returns": {},
  "timestamp": 1772557198,
  "chain": 97,
  "commit": "1e578f5"
}