{
  "transactions": [
    {
      "hash": "0x7ddac0b1e420a09b4241476805b2dde4aed57c40b2e1063df96664066d3ebd19",
      "transactionType": "CALL",
      "contractName": null,
      "contractAddress": "0x84b9b910527ad5c03a9ca831909e21e236ea7b06",
      "function": "approve(address,uint256)",
      "arguments": [
        "0x5D55E23E6D9CEd6c2B9abBDfE5cEBAd1C4567333",
        "1000000000000000000"
      ],
      "transaction": {
        "from": "0x4319f90913bf7dc168887d45f3bfdd9a2c5c9291",
        "to": "0x84b9b910527ad5c03a9ca831909e21e236ea7b06",
        "gas": "0xf959",
        "value": "0x0",
        "input": "0x095ea7b300000000000000000000000018a181748ca82500090c96e2d2d7194bb3c2b16a0000000000000000000000000000000000000000000000000de0b6b3a7640000",
        "nonce": "0x12",
        "chainId": "0x61"
      },
      "additionalContracts": [],
      "isFixedGasLimit": false
    },
    {
      "hash": "0xe6105fb1b8fdc5e9a35532e4877f08e0cc74ac9075011505aa9fd49ce11bfc69",
      "transactionType": "CALL",
      "contractName": null,
      "contractAddress": "0x5D55E23E6D9CEd6c2B9abBDfE5cEBAd1C4567333",
      "function": "placeBet(uint256)",
      "arguments": ["0"],
      "transaction": {
        "from": "0x4319f90913bf7dc168887d45f3bfdd9a2c5c9291",
        "to": "0x5D55E23E6D9CEd6c2B9abBDfE5cEBAd1C4567333",
        "gas": "0x55430",
        "value": "0x0",
        "input": "0x10fe7c480000000000000000000000000000000000000000000000000000000000000000",
        "nonce": "0x13",
        "chainId": "0x61"
      },
      "additionalContracts": [],
      "isFixedGasLimit": false
    }
  ],
  "receipts": [
    {
      "status": "0x1",
      "cumulativeGasUsed": "0x301b1",
      "logs": [
        {
          "address": "0x84b9b910527ad5c03a9ca831909e21e236ea7b06",
          "topics": [
            "0x8c5be1e5ebec7d5bd14f71427d1e84f3dd0314c0f7b2291e5b200ac8c7c3b925",
            "0x0000000000000000000000004319f90913bf7dc168887d45f3bfdd9a2c5c9291",
            "0x00000000000000000000000018a181748ca82500090c96e2d2d7194bb3c2b16a"
          ],
          "data": "0x0000000000000000000000000000000000000000000000000de0b6b3a7640000",
          "blockHash": "0x37a84a7c0bb8b2bd25f43c7c16258e1d89e7be2c8671e899acd883633c783d74",
          "blockNumber": "0x595b03c",
          "blockTimestamp": "0x69a7b7a4",
          "transactionHash": "0x7ddac0b1e420a09b4241476805b2dde4aed57c40b2e1063df96664066d3ebd19",
          "transactionIndex": "0x2",
          "logIndex": "0x5",
          "removed": false
        }
      ],
      "logsBloom": "0x00000000000008000000000000000000000000000000000000000000000000000000000000000000000000400000000000000000000040000000000004200000000000000000000000000000000000000000000000000000000000000000000000000000000000000000000000000204000000000004000000000000000000000000000000000000000000000000000000000000000000000000000000000000020000000000000000000000000000000000000000000000000000000000000000000040000000000000000000000000000000000000000000000000000000000010000000000000000000000000000000000000000000000000020000000000",
      "type": "0x0",
      "transactionHash": "0x7ddac0b1e420a09b4241476805b2dde4aed57c40b2e1063df96664066d3ebd19",
      "transactionIndex": "0x2",
      "blockHash": "0x37a84a7c0bb8b2bd25f43c7c16258e1d89e7be2c8671e899acd883633c783d74",
      "blockNumber": "0x595b03c",
      "gasUsed": "0xb487",
      "effectiveGasPrice": "0x5f5e100",
      "from": "0x4319f90913bf7dc168887d45f3bfdd9a2c5c9291",
      "to": "0x84b9b910527ad5c03a9ca831909e21e236ea7b06",
      "contractAddress": null
    },
    {
      "status": "0x1",
      "cumulativeGasUsed": "0x7befe",
      "logs": [
        {
          "address": "0x84b9b910527ad5c03a9ca831909e21e236ea7b06",
          "topics": [
            "0xddf252ad1be2c89b69c2b068fc378daa952ba7f163c4a11628f55a4df523b3ef",
            "0x0000000000000000000000004319f90913bf7dc168887d45f3bfdd9a2c5c9291",
            "0x00000000000000000000000018a181748ca82500090c96e2d2d7194bb3c2b16a"
          ],
          "data": "0x0000000000000000000000000000000000000000000000000de0b6b3a7640000",
          "blockHash": "0x37a84a7c0bb8b2bd25f43c7c16258e1d89e7be2c8671e899acd883633c783d74",
          "blockNumber": "0x595b03c",
          "blockTimestamp": "0x69a7b7a4",
          "transactionHash": "0xe6105fb1b8fdc5e9a35532e4877f08e0cc74ac9075011505aa9fd49ce11bfc69",
          "transactionIndex": "0x4",
          "logIndex": "0x7",
          "removed": false
        },
        {
          "address": "0x84b9b910527ad5c03a9ca831909e21e236ea7b06",
          "topics": [
            "0xddf252ad1be2c89b69c2b068fc378daa952ba7f163c4a11628f55a4df523b3ef",
            "0x00000000000000000000000018a181748ca82500090c96e2d2d7194bb3c2b16a",
            "0x000000000000000000000000471506e6aded0b9811d05b8cac8db25ee839ac94"
          ],
          "data": "0x000000000000000000000000000000000000000000000000001082fc095449d9",
          "blockHash": "0x37a84a7c0bb8b2bd25f43c7c16258e1d89e7be2c8671e899acd883633c783d74",
          "blockNumber": "0x595b03c",
          "blockTimestamp": "0x69a7b7a4",
          "transactionHash": "0xe6105fb1b8fdc5e9a35532e4877f08e0cc74ac9075011505aa9fd49ce11bfc69",
          "transactionIndex": "0x4",
          "logIndex": "0x8",
          "removed": false
        },
        {
          "address": "0x84b9b910527ad5c03a9ca831909e21e236ea7b06",
          "topics": [
            "0xe19260aff97b920c7df27010903aeb9c8d2be5d310a2c67824cf3f15396e4c16",
            "0x00000000000000000000000018a181748ca82500090c96e2d2d7194bb3c2b16a",
            "0x000000000000000000000000471506e6aded0b9811d05b8cac8db25ee839ac94"
          ],
          "data": "0x000000000000000000000000000000000000000000000000001082fc095449d9000000000000000000000000000000000000000000000000000000000000004000000000000000000000000000000000000000000000000000000000000000e000000000000000000000000000000000000000000000000000000000000493e0000000000000000000000000000000000000000000000000000000000000000300000000000000000000000000000000000000000000000000000000000000010000000000000000000000000000000000000000000000000000000000000080000000000000000000000000000000000000000000000000000000000000002492fd1338000000000000000000000000000000000000000000000000000000000000000000000000000000000000000000000000000000000000000000000000",
          "blockHash": "0x37a84a7c0bb8b2bd25f43c7c16258e1d89e7be2c8671e899acd883633c783d74",
          "blockNumber": "0x595b03c",
          "blockTimestamp": "0x69a7b7a4",
          "transactionHash": "0xe6105fb1b8fdc5e9a35532e4877f08e0cc74ac9075011505aa9fd49ce11bfc69",
          "transactionIndex": "0x4",
          "logIndex": "0x9",
          "removed": false
        },
        {
          "address": "0xda3b641d438362c440ac5458c57e00a712b66700",
          "topics": [
            "0xeb0e3652e0f44f417695e6e90f2f42c99b65cd7169074c5a654b16b9748c3a4e",
            "0x8596b430971ac45bdf6088665b9ad8e8630c9d5049ab54b14dff711bee7c0e26",
            "0xc29a1fb630f7c045ba20a6f94cdbcd141dc17092fb3afd014c4c4fa984371227",
            "0x000000000000000000000000471506e6aded0b9811d05b8cac8db25ee839ac94"
          ],
          "data": "0x66726f8850f9b8c55672d400318fcfd0412b31cf5298f69fa49c64556c40e77f1613376e5115b0282782594bc4ac4a9848528aecbd892937052f1b71301295f50000000000000000000000000000000000000000000000000000000000000003000000000000000000000000000000000000000000000000000000000004dad2000000000000000000000000000000000000000000000000000000000000000100000000000000000000000000000000000000000000000000000000000000c0000000000000000000000000000000000000000000000000000000000000002492fd1338000000000000000000000000000000000000000000000000000000000000000000000000000000000000000000000000000000000000000000000000",
          "blockHash": "0x37a84a7c0bb8b2bd25f43c7c16258e1d89e7be2c8671e899acd883633c783d74",
          "blockNumber": "0x595b03c",
          "blockTimestamp": "0x69a7b7a4",
          "transactionHash": "0xe6105fb1b8fdc5e9a35532e4877f08e0cc74ac9075011505aa9fd49ce11bfc69",
          "transactionIndex": "0x4",
          "logIndex": "0xa",
          "removed": false
        },
        {
          "address": "0x5D55E23E6D9CEd6c2B9abBDfE5cEBAd1C4567333",
          "topics": [
            "0x631131d4f69c2825a32d691d67d3707f79d2e5da1c241c756649f47f7d811841",
            "0x66726f8850f9b8c55672d400318fcfd0412b31cf5298f69fa49c64556c40e77f",
            "0x0000000000000000000000004319f90913bf7dc168887d45f3bfdd9a2c5c9291",
            "0x00000000000000000000000084b9b910527ad5c03a9ca831909e21e236ea7b06"
          ],
          "data": "0x0000000000000000000000000000000000000000000000000de0b6b3a7640000000000000000000000000000000000000000000000000000001082fc095449d90000000000000000000000000000000000000000000000000000000069a7b7a4",
          "blockHash": "0x37a84a7c0bb8b2bd25f43c7c16258e1d89e7be2c8671e899acd883633c783d74",
          "blockNumber": "0x595b03c",
          "blockTimestamp": "0x69a7b7a4",
          "transactionHash": "0xe6105fb1b8fdc5e9a35532e4877f08e0cc74ac9075011505aa9fd49ce11bfc69",
          "transactionIndex": "0x4",
          "logIndex": "0xb",
          "removed": false
        }
      ],
      "logsBloom": "0x0000001000000800000020000000040000000000000000000020000002000000000000000000000000000040000000000000000000004000000000000500000000000000000000080000000c000000000000080000200000000020000000000000000000000240000000000000000204000000000004000000800010000000000808000000000000000000800200000000000020040020000000000008000004000000000000800000020000000000000000000000400100000000100000000000000042000000000000000000000800000000000000000000000000000000000000000000000000000000000000000000000000000000004000020000000000",
      "type": "0x0",
      "transactionHash": "0xe6105fb1b8fdc5e9a35532e4877f08e0cc74ac9075011505aa9fd49ce11bfc69",
      "transactionIndex": "0x4",
      "blockHash": "0x37a84a7c0bb8b2bd25f43c7c16258e1d89e7be2c8671e899acd883633c783d74",
      "blockNumber": "0x595b03c",
      "gasUsed": "0x43452",
      "effectiveGasPrice": "0x5f5e100",
      "from": "0x4319f90913bf7dc168887d45f3bfdd9a2c5c9291",
      "to": "0x5D55E23E6D9CEd6c2B9abBDfE5cEBAd1C4567333",
      "contractAddress": null
    }
  ],
  "libraries": [],
  "pending": [],
  "returns": {},
  "timestamp": 1772599207,
  "chain": 97,
  "commit": "5ece6ce"
}
