{
  "transactions": [
    {
      "hash": "0xe71a298add836c44ed6f1117a109d4c91098aaf7664f76ea3e9f174d30c6ac89",
      "transactionType": "CALL",
      "contractName": null,
      "contractAddress": "0x0cb3246ec8451b708612f9e3e44b8816b82fccd5",
      "function": "approve(address,uint256)",
      "arguments": [
        "0x5D55E23E6D9CEd6c2B9abBDfE5cEBAd1C4567333",
        "1000000000000000000"
      ],
      "transaction": {
        "from": "0x4319f90913bf7dc168887d45f3bfdd9a2c5c9291",
        "to": "0x0cb3246ec8451b708612f9e3e44b8816b82fccd5",
        "gas": "0xf7f5",
        "value": "0x0",
        "input": "0x095ea7b30000000000000000000000005d55e23e6d9ced6c2b9abbdfe5cebad1c45673330000000000000000000000000000000000000000000000000de0b6b3a7640000",
        "nonce": "0x1f",
        "chainId": "0x61"
      },
      "additionalContracts": [],
      "isFixedGasLimit": false
    },
    {
      "hash": "0x5181e24fcdafc3dbcc8b688f008c05a399bcabebf7df965967badbcffbae77aa",
      "transactionType": "CALL",
      "contractName": null,
      "contractAddress": "0x5d55e23e6d9ced6c2b9abbdfe5cebad1c4567333",
      "function": "placeBet(uint256)",
      "arguments": [
        "0"
      ],
      "transaction": {
        "from": "0x4319f90913bf7dc168887d45f3bfdd9a2c5c9291",
        "to": "0x5d55e23e6d9ced6c2b9abbdfe5cebad1c4567333",
        "gas": "0x546f2",
        "value": "0x0",
        "input": "0x10fe7c480000000000000000000000000000000000000000000000000000000000000000",
        "nonce": "0x20",
        "chainId": "0x61"
      },
      "additionalContracts": [],
      "isFixedGasLimit": false
    }
  ],
  "receipts": [
    {
      "status": "0x1",
      "cumulativeGasUsed": "0x289d54",
      "logs": [
        {
          "address": "0x0cb3246ec8451b708612f9e3e44b8816b82fccd5",
          "topics": [
            "0x8c5be1e5ebec7d5bd14f71427d1e84f3dd0314c0f7b2291e5b200ac8c7c3b925",
            "0x0000000000000000000000004319f90913bf7dc168887d45f3bfdd9a2c5c9291",
            "0x0000000000000000000000005d55e23e6d9ced6c2b9abbdfe5cebad1c4567333"
          ],
          "data": "0x0000000000000000000000000000000000000000000000000de0b6b3a7640000",
          "blockHash": "0xedb86a68af5f1d11a396a1cdf8a79f178bcf43d18d7456a2fc310762bcd0d3cf",
          "blockNumber": "0x595c8f0",
          "blockTimestamp": "0x69a7c2ca",
          "transactionHash": "0xe71a298add836c44ed6f1117a109d4c91098aaf7664f76ea3e9f174d30c6ac89",
          "transactionIndex": "0x28",
          "logIndex": "0x3b",
          "removed": false
        }
      ],
      "logsBloom": "0x00000000000000000000000000000000000000000000000000000000000000000000000000000000000000400000000000000000000000000000000000200000000000002000000000000000000000000000000000000000000000000000000000000000000000000000008000000200000000000000000000000000000000000000000000000000000000000000000000000000000000000000000000000000020000000000000000000000000000000000000000000000000000000004000000000000000000000000000000000000000000000000000000000000000000000010000000000000000000400000000200000000000000020000020000000000",
      "type": "0x0",
      "transactionHash": "0xe71a298add836c44ed6f1117a109d4c91098aaf7664f76ea3e9f174d30c6ac89",
      "transactionIndex": "0x28",
      "blockHash": "0xedb86a68af5f1d11a396a1cdf8a79f178bcf43d18d7456a2fc310762bcd0d3cf",
      "blockNumber": "0x595c8f0",
      "gasUsed": "0xb385",
      "effectiveGasPrice": "0x5f5e100",
      "from": "0x4319f90913bf7dc168887d45f3bfdd9a2c5c9291",
      "to": "0x0cb3246ec8451b708612f9e3e44b8816b82fccd5",
      "contractAddress": null
    },
    {
      "status": "0x1",
      "cumulativeGasUsed": "0x2cd300",
      "logs": [
        {
          "address": "0x0cb3246ec8451b708612f9e3e44b8816b82fccd5",
          "topics": [
            "0xddf252ad1be2c89b69c2b068fc378daa952ba7f163c4a11628f55a4df523b3ef",
            "0x0000000000000000000000004319f90913bf7dc168887d45f3bfdd9a2c5c9291",
            "0x0000000000000000000000005d55e23e6d9ced6c2b9abbdfe5cebad1c4567333"
          ],
          "data": "0x0000000000000000000000000000000000000000000000000de0b6b3a7640000",
          "blockHash": "0xedb86a68af5f1d11a396a1cdf8a79f178bcf43d18d7456a2fc310762bcd0d3cf",
          "blockNumber": "0x595c8f0",
          "blockTimestamp": "0x69a7c2ca",
          "transactionHash": "0x5181e24fcdafc3dbcc8b688f008c05a399bcabebf7df965967badbcffbae77aa",
          "transactionIndex": "0x29",
          "logIndex": "0x3c",
          "removed": false
        },
        {
          "address": "0x84b9b910527ad5c03a9ca831909e21e236ea7b06",
          "topics": [
            "0xddf252ad1be2c89b69c2b068fc378daa952ba7f163c4a11628f55a4df523b3ef",
            "0x0000000000000000000000005d55e23e6d9ced6c2b9abbdfe5cebad1c4567333",
            "0x000000000000000000000000471506e6aded0b9811d05b8cac8db25ee839ac94"
          ],
          "data": "0x0000000000000000000000000000000000000000000000000010928b02444b9d",
          "blockHash": "0xedb86a68af5f1d11a396a1cdf8a79f178bcf43d18d7456a2fc310762bcd0d3cf",
          "blockNumber": "0x595c8f0",
          "blockTimestamp": "0x69a7c2ca",
          "transactionHash": "0x5181e24fcdafc3dbcc8b688f008c05a399bcabebf7df965967badbcffbae77aa",
          "transactionIndex": "0x29",
          "logIndex": "0x3d",
          "removed": false
        },
        {
          "address": "0x84b9b910527ad5c03a9ca831909e21e236ea7b06",
          "topics": [
            "0xe19260aff97b920c7df27010903aeb9c8d2be5d310a2c67824cf3f15396e4c16",
            "0x0000000000000000000000005d55e23e6d9ced6c2b9abbdfe5cebad1c4567333",
            "0x000000000000000000000000471506e6aded0b9811d05b8cac8db25ee839ac94"
          ],
          "data": "0x0000000000000000000000000000000000000000000000000010928b02444b9d000000000000000000000000000000000000000000000000000000000000004000000000000000000000000000000000000000000000000000000000000000e000000000000000000000000000000000000000000000000000000000000493e0000000000000000000000000000000000000000000000000000000000000000300000000000000000000000000000000000000000000000000000000000000010000000000000000000000000000000000000000000000000000000000000080000000000000000000000000000000000000000000000000000000000000002492fd1338000000000000000000000000000000000000000000000000000000000000000000000000000000000000000000000000000000000000000000000000",
          "blockHash": "0xedb86a68af5f1d11a396a1cdf8a79f178bcf43d18d7456a2fc310762bcd0d3cf",
          "blockNumber": "0x595c8f0",
          "blockTimestamp": "0x69a7c2ca",
          "transactionHash": "0x5181e24fcdafc3dbcc8b688f008c05a399bcabebf7df965967badbcffbae77aa",
          "transactionIndex": "0x29",
          "logIndex": "0x3e",
          "removed": false
        },
        {
          "address": "0xda3b641d438362c440ac5458c57e00a712b66700",
          "topics": [
            "0xeb0e3652e0f44f417695e6e90f2f42c99b65cd7169074c5a654b16b9748c3a4e",
            "0x8596b430971ac45bdf6088665b9ad8e8630c9d5049ab54b14dff711bee7c0e26",
            "0xc29a1fb630f7c045ba20a6f94cdbcd141dc17092fb3afd014c4c4fa984371227",
            "0x000000000000000000000000471506e6aded0b9811d05b8cac8db25ee839ac94"
          ],
          "data": "0xb307f2010b89c4eecd1ae805d1bd23a67de6a6f77945f1792b98e01468d5e7b7cbe013c421706ef6e441e94aef724c5d8514740b44bbdf352ebc1efcf78d42100000000000000000000000000000000000000000000000000000000000000003000000000000000000000000000000000000000000000000000000000004dad2000000000000000000000000000000000000000000000000000000000000000100000000000000000000000000000000000000000000000000000000000000c0000000000000000000000000000000000000000000000000000000000000002492fd1338000000000000000000000000000000000000000000000000000000000000000000000000000000000000000000000000000000000000000000000000",
          "blockHash": "0xedb86a68af5f1d11a396a1cdf8a79f178bcf43d18d7456a2fc310762bcd0d3cf",
          "blockNumber": "0x595c8f0",
          "blockTimestamp": "0x69a7c2ca",
          "transactionHash": "0x5181e24fcdafc3dbcc8b688f008c05a399bcabebf7df965967badbcffbae77aa",
          "transactionIndex": "0x29",
          "logIndex": "0x3f",
          "removed": false
        },
        {
          "address": "0x5d55e23e6d9ced6c2b9abbdfe5cebad1c4567333",
          "topics": [
            "0x631131d4f69c2825a32d691d67d3707f79d2e5da1c241c756649f47f7d811841",
            "0xb307f2010b89c4eecd1ae805d1bd23a67de6a6f77945f1792b98e01468d5e7b7",
            "0x0000000000000000000000004319f90913bf7dc168887d45f3bfdd9a2c5c9291",
            "0x0000000000000000000000000cb3246ec8451b708612f9e3e44b8816b82fccd5"
          ],
          "data": "0x0000000000000000000000000000000000000000000000000de0b6b3a76400000000000000000000000000000000000000000000000000000010928b02444b9d0000000000000000000000000000000000000000000000000000000069a7c2ca",
          "blockHash": "0xedb86a68af5f1d11a396a1cdf8a79f178bcf43d18d7456a2fc310762bcd0d3cf",
          "blockNumber": "0x595c8f0",
          "blockTimestamp": "0x69a7c2ca",
          "transactionHash": "0x5181e24fcdafc3dbcc8b688f008c05a399bcabebf7df965967badbcffbae77aa",
          "transactionIndex": "0x29",
          "logIndex": "0x40",
          "removed": false
        }
      ],
      "logsBloom": "0x00000000000008000010000000000000000000000000000000200000020000000000000001080000000000400000000000000000000000000000000000000000000000002000000800000008000000000000080000200000000020000000000000000000000200000000008000000204000000000000000000800010000000000808000000000000000000800200000000000220040020000000000008000000000000000000800000000000000000000000000000000500000000100004020000000042000000000000000000000800000000000000000000000000000000000080001040000000000000400000000200000000000000024000020000000000",
      "type": "0x0",
      "transactionHash": "0x5181e24fcdafc3dbcc8b688f008c05a399bcabebf7df965967badbcffbae77aa",
      "transactionIndex": "0x29",
      "blockHash": "0xedb86a68af5f1d11a396a1cdf8a79f178bcf43d18d7456a2fc310762bcd0d3cf",
      "blockNumber": "0x595c8f0",
      "gasUsed": "0x435ac",
      "effectiveGasPrice": "0x5f5e100",
      "from": "0x4319f90913bf7dc168887d45f3bfdd9a2c5c9291",
      "to": "0x5d55e23e6d9ced6c2b9abbdfe5cebad1c4567333",
      "contractAddress": null
    }
  ],
  "libraries": [],
  "pending": [],
  "returns": {},
  "timestamp": 1772602059,
  "chain": 97,
  "commit": "5ece6ce"
}