{
  "transactions": [
    {
      "hash": "0x4eb143a055fb22e069f059ef8548136ca2752e1c0691db3106085fd9521d13b7",
      "transactionType": "CALL",
      "contractName": null,
      "contractAddress": "0x84b9b910527ad5c03a9ca831909e21e236ea7b06",
      "function": "approve(address,uint256)",
      "arguments": [
        "0xf316b4698b1D147Ac0a6B0E63A7E012070b89CE0",
        "1000000000000000000"
      ],
      "transaction": {
        "from": "0x4319f90913bf7dc168887d45f3bfdd9a2c5c9291",
        "to": "0x84b9b910527ad5c03a9ca831909e21e236ea7b06",
        "gas": "0x10816",
        "value": "0x0",
        "input": "0x095ea7b3000000000000000000000000f316b4698b1d147ac0a6b0e63a7e012070b89ce00000000000000000000000000000000000000000000000000de0b6b3a7640000",
        "nonce": "0x5",
        "chainId": "0x61"
      },
      "additionalContracts": [],
      "isFixedGasLimit": false
    },
    {
      "hash": "0x891a22b88ad67d7471e29eeac4dbb7f54b0b755dfb835f313d8566a2990e48c2",
      "transactionType": "CALL",
      "contractName": null,
      "contractAddress": "0xf316b4698b1d147ac0a6b0e63a7e012070b89ce0",
      "function": "placeBet(uint256)",
      "arguments": [
        "0"
      ],
      "transaction": {
        "from": "0x4319f90913bf7dc168887d45f3bfdd9a2c5c9291",
        "to": "0xf316b4698b1d147ac0a6b0e63a7e012070b89ce0",
        "gas": "0x3d7d0",
        "value": "0x0",
        "input": "0x10fe7c480000000000000000000000000000000000000000000000000000000000000000",
        "nonce": "0x6",
        "chainId": "0x61"
      },
      "additionalContracts": [],
      "isFixedGasLimit": false
    }
  ],
  "receipts": [
    {
      "status": "0x1",
      "cumulativeGasUsed": "0x290ad8",
      "logs": [
        {
          "address": "0x84b9b910527ad5c03a9ca831909e21e236ea7b06",
          "topics": [
            "0x8c5be1e5ebec7d5bd14f71427d1e84f3dd0314c0f7b2291e5b200ac8c7c3b925",
            "0x0000000000000000000000004319f90913bf7dc168887d45f3bfdd9a2c5c9291",
            "0x000000000000000000000000f316b4698b1d147ac0a6b0e63a7e012070b89ce0"
          ],
          "data": "0x0000000000000000000000000000000000000000000000000de0b6b3a7640000",
          "blockHash": "0xd239ad85134d37704c6fdd54c682ec246d316f76d2ec8853f3465f41fdfe3a8d",
          "blockNumber": "0x5937468",
          "blockTimestamp": "0x69a6b5bb",
          "transactionHash": "0x4eb143a055fb22e069f059ef8548136ca2752e1c0691db3106085fd9521d13b7",
          "transactionIndex": "0x16",
          "logIndex": "0x46",
          "removed": false
        }
      ],
      "logsBloom": "0x00000000000008000000000000000000000000000000000000000000000000000000000020000000000000400000000000000000000000000000000000200000000000000000000000000000000000000000000000000000000000000000000100000000000000000000000000000204000000000000000000000000000000000000000000000000000000000000000000000000000000000000000000000000020000000000000000000000000000000000000000000000000000000000000000000040000000000000000000000000000000000000000000000000000000000010000000000000000000200000000000000000000000000000020000000000",
      "type": "0x0",
      "transactionHash": "0x4eb143a055fb22e069f059ef8548136ca2752e1c0691db3106085fd9521d13b7",
      "transactionIndex": "0x16",
      "blockHash": "0xd239ad85134d37704c6fdd54c682ec246d316f76d2ec8853f3465f41fdfe3a8d",
      "blockNumber": "0x5937468",
      "gasUsed": "0xb493",
      "effectiveGasPrice": "0x5f5e100",
      "from": "0x4319f90913bf7dc168887d45f3bfdd9a2c5c9291",
      "to": "0x84b9b910527ad5c03a9ca831909e21e236ea7b06",
      "contractAddress": null
    },
    {
      "status": "0x1",
      "cumulativeGasUsed": "0x2ed535",
      "logs": [
        {
          "address": "0x84b9b910527ad5c03a9ca831909e21e236ea7b06",
          "topics": [
            "0xddf252ad1be2c89b69c2b068fc378daa952ba7f163c4a11628f55a4df523b3ef",
            "0x0000000000000000000000004319f90913bf7dc168887d45f3bfdd9a2c5c9291",
            "0x000000000000000000000000f316b4698b1d147ac0a6b0e63a7e012070b89ce0"
          ],
          "data": "0x0000000000000000000000000000000000000000000000000de0b6b3a7640000",
          "blockHash": "0xd239ad85134d37704c6fdd54c682ec246d316f76d2ec8853f3465f41fdfe3a8d",
          "blockNumber": "0x5937468",
          "blockTimestamp": "0x69a6b5bb",
          "transactionHash": "0x891a22b88ad67d7471e29eeac4dbb7f54b0b755dfb835f313d8566a2990e48c2",
          "transactionIndex": "0x19",
          "logIndex": "0x4d",
          "removed": false
        },
        {
          "address": "0xda3b641d438362c440ac5458c57e00a712b66700",
          "topics": [
            "0xeb0e3652e0f44f417695e6e90f2f42c99b65cd7169074c5a654b16b9748c3a4e",
            "0x8596b430971ac45bdf6088665b9ad8e8630c9d5049ab54b14dff711bee7c0e26",
            "0x397ae10f774ed6a6c6d3ba0d641af2e0d4cb0a57bbebcf1f75e2480e3f3eb1e6",
            "0x000000000000000000000000f316b4698b1d147ac0a6b0e63a7e012070b89ce0"
          ],
          "data": "0x3e23d34ad46d3afb6acc6de7905d63561b8d7203ca0040833cf004e943f4b2853fc9d145303d65f1194bb9657e057e5cb6a1fbd756eea57e01c869d4b67837d4000000000000000000000000000000000000000000000000000000000000000300000000000000000000000000000000000000000000000000000000000493e0000000000000000000000000000000000000000000000000000000000000000100000000000000000000000000000000000000000000000000000000000000c0000000000000000000000000000000000000000000000000000000000000002492fd1338000000000000000000000000000000000000000000000000000000000000000000000000000000000000000000000000000000000000000000000000",
          "blockHash": "0xd239ad85134d37704c6fdd54c682ec246d316f76d2ec8853f3465f41fdfe3a8d",
          "blockNumber": "0x5937468",
          "blockTimestamp": "0x69a6b5bb",
          "transactionHash": "0x891a22b88ad67d7471e29eeac4dbb7f54b0b755dfb835f313d8566a2990e48c2",
          "transactionIndex": "0x19",
          "logIndex": "0x4e",
          "removed": false
        },
        {
          "address": "0xf316b4698b1d147ac0a6b0e63a7e012070b89ce0",
          "topics": [
            "0x3eb44cea59f49c22287f8e33523d42ebf97e0ef1381c5993095673a5a6f66f93",
            "0x3e23d34ad46d3afb6acc6de7905d63561b8d7203ca0040833cf004e943f4b285",
            "0x0000000000000000000000004319f90913bf7dc168887d45f3bfdd9a2c5c9291",
            "0x00000000000000000000000084b9b910527ad5c03a9ca831909e21e236ea7b06"
          ],
          "data": "0x0000000000000000000000000000000000000000000000000de0b6b3a76400000000000000000000000000000000000000000000000000000000000069a6b5bb",
          "blockHash": "0xd239ad85134d37704c6fdd54c682ec246d316f76d2ec8853f3465f41fdfe3a8d",
          "blockNumber": "0x5937468",
          "blockTimestamp": "0x69a6b5bb",
          "transactionHash": "0x891a22b88ad67d7471e29eeac4dbb7f54b0b755dfb835f313d8566a2990e48c2",
          "transactionIndex": "0x19",
          "logIndex": "0x4f",
          "removed": false
        }
      ],
      "logsBloom": "0x00004000000008000000000000000400000000000000000000000000000000000000000020000000000000400000000000000000004000000000000000000000100000000000000000000008000000000000080000000000000000000000000100000000000000000080000000000204000000000000000000001010000000000008000001000000000000000200000000820000040020000000000800000004000000000010000000000000000000000000000000400100000000100000000000000042000000000000000000000800000000000000000000000000000000002000000000000000000000200000000000000000000000004200020000000000",
      "type": "0x0",
      "transactionHash": "0x891a22b88ad67d7471e29eeac4dbb7f54b0b755dfb835f313d8566a2990e48c2",
      "transactionIndex": "0x19",
      "blockHash": "0xd239ad85134d37704c6fdd54c682ec246d316f76d2ec8853f3465f41fdfe3a8d",
      "blockNumber": "0x5937468",
      "gasUsed": "0x2a0b2",
      "effectiveGasPrice": "0x5f5e100",
      "from": "0x4319f90913bf7dc168887d45f3bfdd9a2c5c9291",
      "to": "0xf316b4698b1d147ac0a6b0e63a7e012070b89ce0",
      "contractAddress": null
    }
  ],
  "libraries": [],
  "pending": [],
  "returns": {},
  "timestamp": 1772533183,
  "chain": 97,
  "commit": "9a2beb3"
}