{
  "transactions": [
    {
      "hash": "0x452397eaef9f9f6c829c2788c55b92e5ca45396b5a30baccb2c6ef6c5096e346",
      "transactionType": "CALL",
      "contractName": null,
      "contractAddress": "0x84b9b910527ad5c03a9ca831909e21e236ea7b06",
      "function": "approve(address,uint256)",
      "arguments": [
        "0x5D55E23E6D9CEd6c2B9abBDfE5cEBAd1C4567333",
        "1000000000000000000"
      ],
      "transaction": {
        "from": "0x4319f90913bf7dc168887d45f3bfdd9a2c5c9291",
        "to": "0x84b9b910527ad5c03a9ca831909e21e236ea7b06",
        "gas": "0x10816",
        "value": "0x0",
        "input": "0x095ea7b30000000000000000000000005d55e23e6d9ced6c2b9abbdfe5cebad1c45673330000000000000000000000000000000000000000000000000de0b6b3a7640000",
        "nonce": "0x19",
        "chainId": "0x61"
      },
      "additionalContracts": [],
      "isFixedGasLimit": false
    },
    {
      "hash": "0xa14659cd6a0424cd1b4d3007af978c2ade44fffffb0618b1738ffb77f67aceb2",
      "transactionType": "CALL",
      "contractName": null,
      "contractAddress": "0x5d55e23e6d9ced6c2b9abbdfe5cebad1c4567333",
      "function": "placeBet(uint256)",
      "arguments": [
        "0"
      ],
      "transaction": {
        "from": "0x4319f90913bf7dc168887d45f3bfdd9a2c5c9291",
        "to": "0x5d55e23e6d9ced6c2b9abbdfe5cebad1c4567333",
        "gas": "0x42e24",
        "value": "0x0",
        "input": "0x10fe7c480000000000000000000000000000000000000000000000000000000000000000",
        "nonce": "0x1a",
        "chainId": "0x61"
      },
      "additionalContracts": [],
      "isFixedGasLimit": false
    }
  ],
  "receipts": [
    {
      "status": "0x1",
      "cumulativeGasUsed": "0xb493",
      "logs": [
        {
          "address": "0x84b9b910527ad5c03a9ca831909e21e236ea7b06",
          "topics": [
            "0x8c5be1e5ebec7d5bd14f71427d1e84f3dd0314c0f7b2291e5b200ac8c7c3b925",
            "0x0000000000000000000000004319f90913bf7dc168887d45f3bfdd9a2c5c9291",
            "0x0000000000000000000000005d55e23e6d9ced6c2b9abbdfe5cebad1c4567333"
          ],
          "data": "0x0000000000000000000000000000000000000000000000000de0b6b3a7640000",
          "blockHash": "0x8683fa70591279110861b9edec83db80dbc5e5cbf0bdad13cf7a6f58c1fc4b97",
          "blockNumber": "0x595b888",
          "blockTimestamp": "0x69a7bb63",
          "transactionHash": "0x452397eaef9f9f6c829c2788c55b92e5ca45396b5a30baccb2c6ef6c5096e346",
          "transactionIndex": "0x0",
          "logIndex": "0x0",
          "removed": false
        }
      ],
      "logsBloom": "0x00000000000008000000000000000000000000000000000000000000000000000000000000000000000000400000000000000000000000000000000000200000000000000000000000000000000000000000000000000000000000000000000000000000000000000000000000000204000000000000000000000000000000000000000000000000000000000000000000000000000000000000000000000000020000000000000000000000000000000000000000000000000000000000000000000040000000000000000000000000000000000000000000000000000000000010000000000000000000400000000200000000000000020000020000000000",
      "type": "0x0",
      "transactionHash": "0x452397eaef9f9f6c829c2788c55b92e5ca45396b5a30baccb2c6ef6c5096e346",
      "transactionIndex": "0x0",
      "blockHash": "0x8683fa70591279110861b9edec83db80dbc5e5cbf0bdad13cf7a6f58c1fc4b97",
      "blockNumber": "0x595b888",
      "gasUsed": "0xb493",
      "effectiveGasPrice": "0x5f5e100",
      "from": "0x4319f90913bf7dc168887d45f3bfdd9a2c5c9291",
      "to": "0x84b9b910527ad5c03a9ca831909e21e236ea7b06",
      "contractAddress": null
    },
    {
      "status": "0x1",
      "cumulativeGasUsed": "0x4bf1f",
      "logs": [
        {
          "address": "0x84b9b910527ad5c03a9ca831909e21e236ea7b06",
          "topics": [
            "0xddf252ad1be2c89b69c2b068fc378daa952ba7f163c4a11628f55a4df523b3ef",
            "0x0000000000000000000000004319f90913bf7dc168887d45f3bfdd9a2c5c9291",
            "0x0000000000000000000000005d55e23e6d9ced6c2b9abbdfe5cebad1c4567333"
          ],
          "data": "0x0000000000000000000000000000000000000000000000000de0b6b3a7640000",
          "blockHash": "0x8683fa70591279110861b9edec83db80dbc5e5cbf0bdad13cf7a6f58c1fc4b97",
          "blockNumber": "0x595b888",
          "blockTimestamp": "0x69a7bb63",
          "transactionHash": "0xa14659cd6a0424cd1b4d3007af978c2ade44fffffb0618b1738ffb77f67aceb2",
          "transactionIndex": "0x2",
          "logIndex": "0x1",
          "removed": false
        },
        {
          "address": "0xda3b641d438362c440ac5458c57e00a712b66700",
          "topics": [
            "0xeb0e3652e0f44f417695e6e90f2f42c99b65cd7169074c5a654b16b9748c3a4e",
            "0x8596b430971ac45bdf6088665b9ad8e8630c9d5049ab54b14dff711bee7c0e26",
            "0xc29a1fb630f7c045ba20a6f94cdbcd141dc17092fb3afd014c4c4fa984371227",
            "0x000000000000000000000000471506e6aded0b9811d05b8cac8db25ee839ac94"
          ],
          "data": "0x4c3fd2670ff025a371c7fb46b2fb009cb4ae2000feaf10b5c2f7fcdf5a2131d3d726bddb4e6dad8a0279c4c9525790dcadaae3f3e5c47d9b1a3bdac53835f3040000000000000000000000000000000000000000000000000000000000000003000000000000000000000000000000000000000000000000000000000004dad2000000000000000000000000000000000000000000000000000000000000000100000000000000000000000000000000000000000000000000000000000000c0000000000000000000000000000000000000000000000000000000000000002492fd1338000000000000000000000000000000000000000000000000000000000000000100000000000000000000000000000000000000000000000000000000",
          "blockHash": "0x8683fa70591279110861b9edec83db80dbc5e5cbf0bdad13cf7a6f58c1fc4b97",
          "blockNumber": "0x595b888",
          "blockTimestamp": "0x69a7bb63",
          "transactionHash": "0xa14659cd6a0424cd1b4d3007af978c2ade44fffffb0618b1738ffb77f67aceb2",
          "transactionIndex": "0x2",
          "logIndex": "0x2",
          "removed": false
        },
        {
          "address": "0x5d55e23e6d9ced6c2b9abbdfe5cebad1c4567333",
          "topics": [
            "0x631131d4f69c2825a32d691d67d3707f79d2e5da1c241c756649f47f7d811841",
            "0x4c3fd2670ff025a371c7fb46b2fb009cb4ae2000feaf10b5c2f7fcdf5a2131d3",
            "0x0000000000000000000000004319f90913bf7dc168887d45f3bfdd9a2c5c9291",
            "0x00000000000000000000000084b9b910527ad5c03a9ca831909e21e236ea7b06"
          ],
          "data": "0x0000000000000000000000000000000000000000000000000de0b6b3a764000000000000000000000000000000000000000000000000000000003b6abb99f0000000000000000000000000000000000000000000000000000000000069a7bb63",
          "blockHash": "0x8683fa70591279110861b9edec83db80dbc5e5cbf0bdad13cf7a6f58c1fc4b97",
          "blockNumber": "0x595b888",
          "blockTimestamp": "0x69a7bb63",
          "transactionHash": "0xa14659cd6a0424cd1b4d3007af978c2ade44fffffb0618b1738ffb77f67aceb2",
          "transactionIndex": "0x2",
          "logIndex": "0x3",
          "removed": false
        }
      ],
      "logsBloom": "0x00000000000008000000000000000400000000000000000000200000000000000000000000080000000000400000000000000000000000000000000000000000000000000000000800000008000000000000080000200000000000000000000000000000000200000000000000000204000000000000000200800011000000000808000000000000000000800200000000000200040020000000000008000004000000000000800000000000000000000000000000400100000000100000000000000042000000000000000000000800000000000000000000000000000000000080000000000000000000400000000200000000000000024000020000000002",
      "type": "0x0",
      "transactionHash": "0xa14659cd6a0424cd1b4d3007af978c2ade44fffffb0618b1738ffb77f67aceb2",
      "transactionIndex": "0x2",
      "blockHash": "0x8683fa70591279110861b9edec83db80dbc5e5cbf0bdad13cf7a6f58c1fc4b97",
      "blockNumber": "0x595b888",
      "gasUsed": "0x36eac",
      "effectiveGasPrice": "0x5f5e100",
      "from": "0x4319f90913bf7dc168887d45f3bfdd9a2c5c9291",
      "to": "0x5d55e23e6d9ced6c2b9abbdfe5cebad1c4567333",
      "contractAddress": null
    }
  ],
  "libraries": [],
  "pending": [],
  "returns": {},
  "timestamp": 1772600165,
  "chain": 97,
  "commit": "5ece6ce"
}