{
  "transactions": [
    {
      "hash": "0xbf8386bb2934fc4e71e0b0a3348771aa6b55fd9b20bf0f38721747fa2557a0eb",
      "transactionType": "CALL",
      "contractName": null,
      "contractAddress": "0x5D55E23E6D9CEd6c2B9abBDfE5cEBAd1C4567333",
      "function": "withdrawNative(address,uint256)",
      "arguments": [
        "0x4319f90913bf7dC168887d45f3bfDD9a2C5C9291",
        "49869340800000000"
      ],
      "transaction": {
        "from": "0x4319f90913bf7dc168887d45f3bfdd9a2c5c9291",
        "to": "0x5D55E23E6D9CEd6c2B9abBDfE5cEBAd1C4567333",
        "gas": "0xaa73",
        "value": "0x0",
        "input": "0x07b18bde0000000000000000000000004319f90913bf7dc168887d45f3bfdd9a2c5c929100000000000000000000000000000000000000000000000000b12be6b7912000",
        "nonce": "0x14",
        "chainId": "0x61"
      },
      "additionalContracts": [],
      "isFixedGasLimit": false
    },
    {
      "hash": "0x6b27811fce4d1de69e8e888da03a5525ee7079d0e39239d251a8754313629250",
      "transactionType": "CALL",
      "contractName": null,
      "contractAddress": "0x5D55E23E6D9CEd6c2B9abBDfE5cEBAd1C4567333",
      "function": "withdrawERC20(address,address,uint256)",
      "arguments": [
        "0x84b9B910527Ad5C03A9Ca831909E21e236EA7b06",
        "0x4319f90913bf7dC168887d45f3bfDD9a2C5C9291",
        "5447352381372741159"
      ],
      "transaction": {
        "from": "0x4319f90913bf7dc168887d45f3bfdd9a2c5c9291",
        "to": "0x5D55E23E6D9CEd6c2B9abBDfE5cEBAd1C4567333",
        "gas": "0xc361",
        "value": "0x0",
        "input": "0x44004cc100000000000000000000000084b9b910527ad5c03a9ca831909e21e236ea7b060000000000000000000000004319f90913bf7dc168887d45f3bfdd9a2c5c92910000000000000000000000000000000000000000000000004b98e2212a19b627",
        "nonce": "0x15",
        "chainId": "0x61"
      },
      "additionalContracts": [],
      "isFixedGasLimit": false
    }
  ],
  "receipts": [
    {
      "status": "0x1",
      "cumulativeGasUsed": "0x5c312",
      "logs": [],
      "logsBloom": "0x00000000000000000000000000000000000000000000000000000000000000000000000000000000000000000000000000000000000000000000000000000000000000000000000000000000000000000000000000000000000000000000000000000000000000000000000000000000000000000000000000000000000000000000000000000000000000000000000000000000000000000000000000000000000000000000000000000000000000000000000000000000000000000000000000000000000000000000000000000000000000000000000000000000000000000000000000000000000000000000000000000000000000000000000000000000",
      "type": "0x0",
      "transactionHash": "0xbf8386bb2934fc4e71e0b0a3348771aa6b55fd9b20bf0f38721747fa2557a0eb",
      "transactionIndex": "0x8",
      "blockHash": "0xde730a90cdfcb3ee8a8c5736ddb1dabe98b8ff80e8fcf6345e5a487dd0feb76c",
      "blockNumber": "0x595b579",
      "gasUsed": "0x7b68",
      "effectiveGasPrice": "0x5f5e100",
      "from": "0x4319f90913bf7dc168887d45f3bfdd9a2c5c9291",
      "to": "0x5D55E23E6D9CEd6c2B9abBDfE5cEBAd1C4567333",
      "contractAddress": null
    },
    {
      "status": "0x1",
      "cumulativeGasUsed": "0x67eda",
      "logs": [
        {
          "address": "0x84b9b910527ad5c03a9ca831909e21e236ea7b06",
          "topics": [
            "0xddf252ad1be2c89b69c2b068fc378daa952ba7f163c4a11628f55a4df523b3ef",
            "0x00000000000000000000000018a181748ca82500090c96e2d2d7194bb3c2b16a",
            "0x0000000000000000000000004319f90913bf7dc168887d45f3bfdd9a2c5c9291"
          ],
          "data": "0x0000000000000000000000000000000000000000000000004b98e2212a19b627",
          "blockHash": "0xdb213493e5b3bf8e1b04e938dc22e75ba25b2a5aa3a6924e311bc188067a6eba",
          "blockNumber": "0x595b57a",
          "blockTimestamp": "0x69a7ba00",
          "transactionHash": "0x6b27811fce4d1de69e8e888da03a5525ee7079d0e39239d251a8754313629250",
          "transactionIndex": "0x3",
          "logIndex": "0xf",
          "removed": false
        }
      ],
      "logsBloom": "0x00000000000008000000000000000000000000000000000000000000000000000000000000000000000000400000000000000000000040000000000004000000000000000000000000000008000000000000000000000000000000000000000000000000000000000000000000000204000000000004000000000010000000000000000000000000000000000000000000000000000000000000000000000000000000000000000000000000000000000000000000000000000000000000000000000042000000000000000000000000000000000000000000000000000000000000000000000000000000000000000000000000000000000000020000000000",
      "type": "0x0",
      "transactionHash": "0x6b27811fce4d1de69e8e888da03a5525ee7079d0e39239d251a8754313629250",
      "transactionIndex": "0x3",
      "blockHash": "0xdb213493e5b3bf8e1b04e938dc22e75ba25b2a5aa3a6924e311bc188067a6eba",
      "blockNumber": "0x595b57a",
      "gasUsed": "0x8d74",
      "effectiveGasPrice": "0x5f5e100",
      "from": "0x4319f90913bf7dc168887d45f3bfdd9a2c5c9291",
      "to": "0x5D55E23E6D9CEd6c2B9abBDfE5cEBAd1C4567333",
      "contractAddress": null
    }
  ],
  "libraries": [],
  "pending": [],
  "returns": {},
  "timestamp": 1772599810,
  "chain": 97,
  "commit": "5ece6ce"
}
